{
  "_format": "hh-sol-artifact-1",
  "contractName": "FEWToken",
  "sourceName": "contracts/FEWToken.sol",
  "abi": [
    {
      "inputs": [],
      "stateMutability": "nonpayable",
      "type": "constructor"
    },
    {
      "anonymous": false,
      "inputs": [
        {
          "indexed": true,
          "internalType": "address",
          "name": "owner",
          "type": "address"
        },
        {
          "indexed": true,
          "internalType": "address",
          "name": "spender",
          "type": "address"
        },
        {
          "indexed": false,
          "internalType": "uint256",
          "name": "value",
          "type": "uint256"
        }
      ],
      "name": "Approval",
      "type": "event"
    },
    {
      "anonymous": false,
      "inputs": [
        {
          "indexed": false,
          "internalType": "address",
          "name": "account",
          "type": "address"
        },
        {
          "indexed": false,
          "internalType": "uint256",
          "name": "amount",
          "type": "uint256"
        }
      ],
      "name": "ClaimedRewards",
      "type": "event"
    },
    {
      "anonymous": false,
      "inputs": [
        {
          "indexed": false,
          "internalType": "address",
          "name": "account",
          "type": "address"
        },
        {
          "indexed": false,
          "internalType": "uint256",
          "name": "amount",
          "type": "uint256"
        }
      ],
      "name": "ClaimedToken",
      "type": "event"
    },
    {
      "anonymous": false,
      "inputs": [
        {
          "indexed": true,
          "internalType": "address",
          "name": "previousOwner",
          "type": "address"
        },
        {
          "indexed": true,
          "internalType": "address",
          "name": "newOwner",
          "type": "address"
        }
      ],
      "name": "OwnershipTransferred",
      "type": "event"
    },
    {
      "anonymous": false,
      "inputs": [
        {
          "indexed": true,
          "internalType": "address",
          "name": "from",
          "type": "address"
        },
        {
          "indexed": true,
          "internalType": "address",
          "name": "to",
          "type": "address"
        },
        {
          "indexed": false,
          "internalType": "uint256",
          "name": "value",
          "type": "uint256"
        }
      ],
      "name": "Transfer",
      "type": "event"
    },
    {
      "inputs": [
        {
          "internalType": "address",
          "name": "owner",
          "type": "address"
        },
        {
          "internalType": "address",
          "name": "spender",
          "type": "address"
        }
      ],
      "name": "allowance",
      "outputs": [
        {
          "internalType": "uint256",
          "name": "",
          "type": "uint256"
        }
      ],
      "stateMutability": "view",
      "type": "function"
    },
    {
      "inputs": [
        {
          "internalType": "address",
          "name": "spender",
          "type": "address"
        },
        {
          "internalType": "uint256",
          "name": "amount",
          "type": "uint256"
        }
      ],
      "name": "approve",
      "outputs": [
        {
          "internalType": "bool",
          "name": "",
          "type": "bool"
        }
      ],
      "stateMutability": "nonpayable",
      "type": "function"
    },
    {
      "inputs": [
        {
          "internalType": "address",
          "name": "account",
          "type": "address"
        }
      ],
      "name": "balanceOf",
      "outputs": [
        {
          "internalType": "uint256",
          "name": "",
          "type": "uint256"
        }
      ],
      "stateMutability": "view",
      "type": "function"
    },
    {
      "inputs": [
        {
          "internalType": "uint256",
          "name": "amount",
          "type": "uint256"
        }
      ],
      "name": "burn",
      "outputs": [],
      "stateMutability": "nonpayable",
      "type": "function"
    },
    {
      "inputs": [
        {
          "internalType": "address",
          "name": "account",
          "type": "address"
        },
        {
          "internalType": "uint256",
          "name": "amount",
          "type": "uint256"
        }
      ],
      "name": "burnFrom",
      "outputs": [],
      "stateMutability": "nonpayable",
      "type": "function"
    },
    {
      "inputs": [],
      "name": "claim_E",
      "outputs": [],
      "stateMutability": "nonpayable",
      "type": "function"
    },
    {
      "inputs": [],
      "name": "claim_T",
      "outputs": [],
      "stateMutability": "nonpayable",
      "type": "function"
    },
    {
      "inputs": [],
      "name": "decimals",
      "outputs": [
        {
          "internalType": "uint8",
          "name": "",
          "type": "uint8"
        }
      ],
      "stateMutability": "view",
      "type": "function"
    },
    {
      "inputs": [
        {
          "internalType": "address",
          "name": "spender",
          "type": "address"
        },
        {
          "internalType": "uint256",
          "name": "subtractedValue",
          "type": "uint256"
        }
      ],
      "name": "decreaseAllowance",
      "outputs": [
        {
          "internalType": "bool",
          "name": "",
          "type": "bool"
        }
      ],
      "stateMutability": "nonpayable",
      "type": "function"
    },
    {
      "inputs": [],
      "name": "getInviteInfo",
      "outputs": [
        {
          "internalType": "bool",
          "name": "isInviter",
          "type": "bool"
        },
        {
          "internalType": "uint256",
          "name": "totalInvitationNums",
          "type": "uint256"
        },
        {
          "internalType": "uint256",
          "name": "subscribe_fee",
          "type": "uint256"
        },
        {
          "internalType": "uint256",
          "name": "subscribe_amount",
          "type": "uint256"
        }
      ],
      "stateMutability": "view",
      "type": "function"
    },
    {
      "inputs": [],
      "name": "getRewardsInfo",
      "outputs": [
        {
          "internalType": "uint256",
          "name": "rewards_e",
          "type": "uint256"
        },
        {
          "internalType": "uint256",
          "name": "claimed_e",
          "type": "uint256"
        },
        {
          "internalType": "uint256",
          "name": "rewards_t",
          "type": "uint256"
        },
        {
          "internalType": "uint256",
          "name": "claimed_t",
          "type": "uint256"
        }
      ],
      "stateMutability": "view",
      "type": "function"
    },
    {
      "inputs": [
        {
          "internalType": "address",
          "name": "spender",
          "type": "address"
        },
        {
          "internalType": "uint256",
          "name": "addedValue",
          "type": "uint256"
        }
      ],
      "name": "increaseAllowance",
      "outputs": [
        {
          "internalType": "bool",
          "name": "",
          "type": "bool"
        }
      ],
      "stateMutability": "nonpayable",
      "type": "function"
    },
    {
      "inputs": [],
      "name": "inviteeBase",
      "outputs": [
        {
          "internalType": "uint8",
          "name": "",
          "type": "uint8"
        }
      ],
      "stateMutability": "view",
      "type": "function"
    },
    {
      "inputs": [
        {
          "internalType": "address",
          "name": "account",
          "type": "address"
        },
        {
          "internalType": "uint256",
          "name": "amount",
          "type": "uint256"
        }
      ],
      "name": "mint",
      "outputs": [],
      "stateMutability": "nonpayable",
      "type": "function"
    },
    {
      "inputs": [],
      "name": "name",
      "outputs": [
        {
          "internalType": "string",
          "name": "",
          "type": "string"
        }
      ],
      "stateMutability": "view",
      "type": "function"
    },
    {
      "inputs": [],
      "name": "owner",
      "outputs": [
        {
          "internalType": "address",
          "name": "",
          "type": "address"
        }
      ],
      "stateMutability": "view",
      "type": "function"
    },
    {
      "inputs": [],
      "name": "renounceOwnership",
      "outputs": [],
      "stateMutability": "nonpayable",
      "type": "function"
    },
    {
      "inputs": [],
      "name": "rewardsBase",
      "outputs": [
        {
          "internalType": "uint8",
          "name": "",
          "type": "uint8"
        }
      ],
      "stateMutability": "view",
      "type": "function"
    },
    {
      "inputs": [
        {
          "internalType": "uint8",
          "name": "_inBase",
          "type": "uint8"
        }
      ],
      "name": "setInviteeBase",
      "outputs": [],
      "stateMutability": "nonpayable",
      "type": "function"
    },
    {
      "inputs": [
        {
          "internalType": "uint8",
          "name": "_rewBase",
          "type": "uint8"
        }
      ],
      "name": "setRewardsBase",
      "outputs": [],
      "stateMutability": "nonpayable",
      "type": "function"
    },
    {
      "inputs": [
        {
          "internalType": "uint256",
          "name": "_subAmount",
          "type": "uint256"
        }
      ],
      "name": "setSubscribeAmount",
      "outputs": [],
      "stateMutability": "nonpayable",
      "type": "function"
    },
    {
      "inputs": [
        {
          "internalType": "uint256",
          "name": "_subFee",
          "type": "uint256"
        }
      ],
      "name": "setSubscribeFee",
      "outputs": [],
      "stateMutability": "nonpayable",
      "type": "function"
    },
    {
      "inputs": [
        {
          "internalType": "address",
          "name": "inviter",
          "type": "address"
        }
      ],
      "name": "subscribe",
      "outputs": [],
      "stateMutability": "payable",
      "type": "function"
    },
    {
      "inputs": [],
      "name": "subscribeAmount",
      "outputs": [
        {
          "internalType": "uint256",
          "name": "",
          "type": "uint256"
        }
      ],
      "stateMutability": "view",
      "type": "function"
    },
    {
      "inputs": [],
      "name": "subscribeEndTime",
      "outputs": [
        {
          "internalType": "uint256",
          "name": "",
          "type": "uint256"
        }
      ],
      "stateMutability": "view",
      "type": "function"
    },
    {
      "inputs": [],
      "name": "subscribeFee",
      "outputs": [
        {
          "internalType": "uint256",
          "name": "",
          "type": "uint256"
        }
      ],
      "stateMutability": "view",
      "type": "function"
    },
    {
      "inputs": [],
      "name": "supply",
      "outputs": [
        {
          "internalType": "uint256",
          "name": "",
          "type": "uint256"
        }
      ],
      "stateMutability": "view",
      "type": "function"
    },
    {
      "inputs": [],
      "name": "symbol",
      "outputs": [
        {
          "internalType": "string",
          "name": "",
          "type": "string"
        }
      ],
      "stateMutability": "view",
      "type": "function"
    },
    {
      "inputs": [],
      "name": "totalSubscribe",
      "outputs": [
        {
          "internalType": "uint256",
          "name": "",
          "type": "uint256"
        }
      ],
      "stateMutability": "view",
      "type": "function"
    },
    {
      "inputs": [],
      "name": "totalSupply",
      "outputs": [
        {
          "internalType": "uint256",
          "name": "",
          "type": "uint256"
        }
      ],
      "stateMutability": "view",
      "type": "function"
    },
    {
      "inputs": [
        {
          "internalType": "address",
          "name": "to",
          "type": "address"
        },
        {
          "internalType": "uint256",
          "name": "amount",
          "type": "uint256"
        }
      ],
      "name": "transfer",
      "outputs": [
        {
          "internalType": "bool",
          "name": "",
          "type": "bool"
        }
      ],
      "stateMutability": "nonpayable",
      "type": "function"
    },
    {
      "inputs": [
        {
          "internalType": "address",
          "name": "from",
          "type": "address"
        },
        {
          "internalType": "address",
          "name": "to",
          "type": "address"
        },
        {
          "internalType": "uint256",
          "name": "amount",
          "type": "uint256"
        }
      ],
      "name": "transferFrom",
      "outputs": [
        {
          "internalType": "bool",
          "name": "",
          "type": "bool"
        }
      ],
      "stateMutability": "nonpayable",
      "type": "function"
    },
    {
      "inputs": [
        {
          "internalType": "address",
          "name": "newOwner",
          "type": "address"
        }
      ],
      "name": "transferOwnership",
      "outputs": [],
      "stateMutability": "nonpayable",
      "type": "function"
    },
    {
      "inputs": [],
      "name": "withDraw",
      "outputs": [],
      "stateMutability": "nonpayable",
      "type": "function"
    },
    {
      "inputs": [
        {
          "internalType": "address",
          "name": "account",
          "type": "address"
        },
        {
          "internalType": "uint256",
          "name": "amount",
          "type": "uint256"
        }
      ],
      "name": "withDrawToken",
      "outputs": [],
      "stateMutability": "nonpayable",
      "type": "function"
    }
  ],
  "bytecode": "0x60a06040526b06c9144c1c690d4cb4000000600755662386f26fc1000060085569152d02c7e14af68000006009556003600b60006101000a81548160ff021916908360ff1602179055506005600b60016101000a81548160ff021916908360ff1602179055503480156200007257600080fd5b506040518060400160405280600881526020017f464557546f6b656e0000000000000000000000000000000000000000000000008152506040518060400160405280600381526020017f46455700000000000000000000000000000000000000000000000000000000008152508160039081620000f0919062000662565b50806004908162000102919062000662565b50505062000125620001196200019860201b60201c565b620001a060201b60201c565b62000139306007546200026660201b60201c565b33600660006101000a81548173ffffffffffffffffffffffffffffffffffffffff021916908373ffffffffffffffffffffffffffffffffffffffff160217905550624f1a00426200018b919062000778565b6080818152505062000864565b600033905090565b6000600560009054906101000a900473ffffffffffffffffffffffffffffffffffffffff16905081600560006101000a81548173ffffffffffffffffffffffffffffffffffffffff021916908373ffffffffffffffffffffffffffffffffffffffff1602179055508173ffffffffffffffffffffffffffffffffffffffff168173ffffffffffffffffffffffffffffffffffffffff167f8be0079c531659141344cd1fd0a4f28419497f9722a3daafe3b4186f6b6457e060405160405180910390a35050565b600073ffffffffffffffffffffffffffffffffffffffff168273ffffffffffffffffffffffffffffffffffffffff1603620002d8576040517f08c379a0000000000000000000000000000000000000000000000000000000008152600401620002cf9062000814565b60405180910390fd5b620002ec60008383620003de60201b60201c565b806002600082825462000300919062000778565b92505081905550806000808473ffffffffffffffffffffffffffffffffffffffff1673ffffffffffffffffffffffffffffffffffffffff168152602001908152602001600020600082825462000357919062000778565b925050819055508173ffffffffffffffffffffffffffffffffffffffff16600073ffffffffffffffffffffffffffffffffffffffff167fddf252ad1be2c89b69c2b068fc378daa952ba7f163c4a11628f55a4df523b3ef83604051620003be919062000847565b60405180910390a3620003da60008383620003e360201b60201c565b5050565b505050565b505050565b600081519050919050565b7f4e487b7100000000000000000000000000000000000000000000000000000000600052604160045260246000fd5b7f4e487b7100000000000000000000000000000000000000000000000000000000600052602260045260246000fd5b600060028204905060018216806200046a57607f821691505b60208210810362000480576200047f62000422565b5b50919050565b60008190508160005260206000209050919050565b60006020601f8301049050919050565b600082821b905092915050565b600060088302620004ea7fffffffffffffffffffffffffffffffffffffffffffffffffffffffffffffffff82620004ab565b620004f68683620004ab565b95508019841693508086168417925050509392505050565b6000819050919050565b6000819050919050565b6000620005436200053d62000537846200050e565b62000518565b6200050e565b9050919050565b6000819050919050565b6200055f8362000522565b620005776200056e826200054a565b848454620004b8565b825550505050565b600090565b6200058e6200057f565b6200059b81848462000554565b505050565b5b81811015620005c357620005b760008262000584565b600181019050620005a1565b5050565b601f8211156200061257620005dc8162000486565b620005e7846200049b565b81016020851015620005f7578190505b6200060f62000606856200049b565b830182620005a0565b50505b505050565b600082821c905092915050565b6000620006376000198460080262000617565b1980831691505092915050565b600062000652838362000624565b9150826002028217905092915050565b6200066d82620003e8565b67ffffffffffffffff811115620006895762000688620003f3565b5b62000695825462000451565b620006a2828285620005c7565b600060209050601f831160018114620006da5760008415620006c5578287015190505b620006d1858262000644565b86555062000741565b601f198416620006ea8662000486565b60005b828110156200071457848901518255600182019150602085019450602081019050620006ed565b8683101562000734578489015162000730601f89168262000624565b8355505b6001600288020188555050505b505050505050565b7f4e487b7100000000000000000000000000000000000000000000000000000000600052601160045260246000fd5b600062000785826200050e565b915062000792836200050e565b9250828201905080821115620007ad57620007ac62000749565b5b92915050565b600082825260208201905092915050565b7f45524332303a206d696e7420746f20746865207a65726f206164647265737300600082015250565b6000620007fc601f83620007b3565b91506200080982620007c4565b602082019050919050565b600060208201905081810360008301526200082f81620007ed565b9050919050565b62000841816200050e565b82525050565b60006020820190506200085e600083018462000836565b92915050565b6080516136f36200088e600039600081816108e801528181611154015261121501526136f36000f3fe6080604052600436106102045760003560e01c8063701060c21161011857806395d89b41116100a0578063a9059cbb1161006f578063a9059cbb146106fe578063ad523fe11461073b578063dd62ed3e14610769578063e175c86a146107a6578063f2fde38b146107d457610204565b806395d89b41146106425780639fcad1921461066d578063a457c2d714610698578063a6ede724146106d557610204565b806379cc6790116100e757806379cc67901461058357806382a3bc2d146105ac57806385bc7071146105d75780638da5cb5b1461060057806392d0cb511461062b57610204565b8063701060c2146104db57806370a0823114610504578063715018a6146105415780637543321f1461055857610204565b806323b872dd1161019b578063395093511161016a578063395093511461040557806340c10f191461044257806341a7726a1461046b57806342966c6814610487578063617e124e146104b057610204565b806323b872dd1461035d578063313ce5671461039a57806331f4a5dd146103c557806332fc318f146103dc57610204565b80630fdb1c10116101d75780630fdb1c10146102c5578063130b4c09146102dc578063134ac62f1461030757806318160ddd1461033257610204565b8063047fc9aa1461020957806306fdde0314610234578063095ea7b31461025f5780630f5e4f6e1461029c575b600080fd5b34801561021557600080fd5b5061021e6107fd565b60405161022b9190612634565b60405180910390f35b34801561024057600080fd5b50610249610803565b60405161025691906126df565b60405180910390f35b34801561026b57600080fd5b5061028660048036038101906102819190612790565b610895565b60405161029391906127eb565b60405180910390f35b3480156102a857600080fd5b506102c360048036038101906102be919061283f565b6108b8565b005b3480156102d157600080fd5b506102da6108de565b005b3480156102e857600080fd5b506102f1610998565b6040516102fe9190612634565b60405180910390f35b34801561031357600080fd5b5061031c61099e565b6040516103299190612634565b60405180910390f35b34801561033e57600080fd5b506103476109a4565b6040516103549190612634565b60405180910390f35b34801561036957600080fd5b50610384600480360381019061037f919061286c565b6109ae565b60405161039191906127eb565b60405180910390f35b3480156103a657600080fd5b506103af6109dd565b6040516103bc91906128ce565b60405180910390f35b3480156103d157600080fd5b506103da6109e6565b005b3480156103e857600080fd5b5061040360048036038101906103fe91906128e9565b610caf565b005b34801561041157600080fd5b5061042c60048036038101906104279190612790565b610cc1565b60405161043991906127eb565b60405180910390f35b34801561044e57600080fd5b5061046960048036038101906104649190612790565b610cf8565b005b61048560048036038101906104809190612916565b610d0e565b005b34801561049357600080fd5b506104ae60048036038101906104a991906128e9565b61113e565b005b3480156104bc57600080fd5b506104c5611152565b6040516104d29190612634565b60405180910390f35b3480156104e757600080fd5b5061050260048036038101906104fd91906128e9565b611176565b005b34801561051057600080fd5b5061052b60048036038101906105269190612916565b611188565b6040516105389190612634565b60405180910390f35b34801561054d57600080fd5b506105566111d0565b005b34801561056457600080fd5b5061056d6111e4565b60405161057a9190612634565b60405180910390f35b34801561058f57600080fd5b506105aa60048036038101906105a59190612790565b6111ea565b005b3480156105b857600080fd5b506105c16111f8565b6040516105ce91906128ce565b60405180910390f35b3480156105e357600080fd5b506105fe60048036038101906105f99190612790565b61120b565b005b34801561060c57600080fd5b506106156112d6565b6040516106229190612952565b60405180910390f35b34801561063757600080fd5b50610640611300565b005b34801561064e57600080fd5b5061065761165f565b60405161066491906126df565b60405180910390f35b34801561067957600080fd5b506106826116f1565b60405161068f91906128ce565b60405180910390f35b3480156106a457600080fd5b506106bf60048036038101906106ba9190612790565b611704565b6040516106cc91906127eb565b60405180910390f35b3480156106e157600080fd5b506106fc60048036038101906106f7919061283f565b61177b565b005b34801561070a57600080fd5b5061072560048036038101906107209190612790565b6117a1565b60405161073291906127eb565b60405180910390f35b34801561074757600080fd5b506107506117c4565b604051610760949392919061296d565b60405180910390f35b34801561077557600080fd5b50610790600480360381019061078b91906129b2565b6119aa565b60405161079d9190612634565b60405180910390f35b3480156107b257600080fd5b506107bb611a31565b6040516107cb94939291906129f2565b60405180910390f35b3480156107e057600080fd5b506107fb60048036038101906107f69190612916565b611bed565b005b60075481565b60606003805461081290612a66565b80601f016020809104026020016040519081016040528092919081815260200182805461083e90612a66565b801561088b5780601f106108605761010080835404028352916020019161088b565b820191906000526020600020905b81548152906001019060200180831161086e57829003601f168201915b5050505050905090565b6000806108a0611c70565b90506108ad818585611c78565b600191505092915050565b6108c0611e41565b80600b60006101000a81548160ff021916908360ff16021790555050565b6108e6611e41565b7f0000000000000000000000000000000000000000000000000000000000000000421015610949576040517f08c379a000000000000000000000000000000000000000000000000000000000815260040161094090612ae3565b60405180910390fd5b60004790503373ffffffffffffffffffffffffffffffffffffffff166108fc829081150290604051600060405180830381858888f19350505050158015610994573d6000803e3d6000fd5b5050565b60095481565b60085481565b6000600254905090565b6000806109b9611c70565b90506109c6858285611ebf565b6109d1858585611f4b565b60019150509392505050565b60006012905090565b600c60003373ffffffffffffffffffffffffffffffffffffffff1673ffffffffffffffffffffffffffffffffffffffff16815260200190815260200160002060000160009054906101000a900460ff16610a75576040517f08c379a0000000000000000000000000000000000000000000000000000000008152600401610a6c90612b4f565b60405180910390fd5b600c60003373ffffffffffffffffffffffffffffffffffffffff1673ffffffffffffffffffffffffffffffffffffffff16815260200190815260200160002060040154610ac130611188565b1015610b02576040517f08c379a0000000000000000000000000000000000000000000000000000000008152600401610af990612bbb565b60405180910390fd5b610b4f3033600c60003373ffffffffffffffffffffffffffffffffffffffff1673ffffffffffffffffffffffffffffffffffffffff16815260200190815260200160002060040154611f4b565b6000600c60003373ffffffffffffffffffffffffffffffffffffffff1673ffffffffffffffffffffffffffffffffffffffff16815260200190815260200160002060040181905550600c60003373ffffffffffffffffffffffffffffffffffffffff1673ffffffffffffffffffffffffffffffffffffffff16815260200190815260200160002060040154600c60003373ffffffffffffffffffffffffffffffffffffffff1673ffffffffffffffffffffffffffffffffffffffff1681526020019081526020016000206005016000828254610c2b9190612c0a565b925050819055507f9f2482fecb753a122941f19538876a5b4fdc080a83d01c5f28edde774561cc7433600c60003373ffffffffffffffffffffffffffffffffffffffff1673ffffffffffffffffffffffffffffffffffffffff16815260200190815260200160002060040154604051610ca5929190612c3e565b60405180910390a1565b610cb7611e41565b8060098190555050565b600080610ccc611c70565b9050610ced818585610cde85896119aa565b610ce89190612c0a565b611c78565b600191505092915050565b610d00611e41565b610d0a82826121ca565b5050565b8073ffffffffffffffffffffffffffffffffffffffff163373ffffffffffffffffffffffffffffffffffffffff1603610d7c576040517f08c379a0000000000000000000000000000000000000000000000000000000008152600401610d7390612cb3565b60405180910390fd5b6008543414610dc0576040517f08c379a0000000000000000000000000000000000000000000000000000000008152600401610db790612d1f565b60405180910390fd5b600954610dcc30611188565b1015610e0d576040517f08c379a0000000000000000000000000000000000000000000000000000000008152600401610e0490612db1565b60405180910390fd5b610e1a3033600954611f4b565b600954600a6000828254610e2e9190612c0a565b9250508190555034600c60003373ffffffffffffffffffffffffffffffffffffffff1673ffffffffffffffffffffffffffffffffffffffff1681526020019081526020016000206006016000828254610e879190612c0a565b92505081905550600954600c60003373ffffffffffffffffffffffffffffffffffffffff1673ffffffffffffffffffffffffffffffffffffffff1681526020019081526020016000206007016000828254610ee29190612c0a565b92505081905550600c60003373ffffffffffffffffffffffffffffffffffffffff1673ffffffffffffffffffffffffffffffffffffffff16815260200190815260200160002060000160009054906101000a900460ff16610f99576001600c60003373ffffffffffffffffffffffffffffffffffffffff1673ffffffffffffffffffffffffffffffffffffffff16815260200190815260200160002060000160006101000a81548160ff0219169083151502179055505b600c60008273ffffffffffffffffffffffffffffffffffffffff1673ffffffffffffffffffffffffffffffffffffffff16815260200190815260200160002060000160009054906101000a900460ff161561113b576001600c60008373ffffffffffffffffffffffffffffffffffffffff1673ffffffffffffffffffffffffffffffffffffffff16815260200190815260200160002060010160008282546110419190612c0a565b925050819055506001600c60008373ffffffffffffffffffffffffffffffffffffffff1673ffffffffffffffffffffffffffffffffffffffff168152602001908152602001600020600201600082825461109b9190612c0a565b9250508190555060006110de60646110d0600b60019054906101000a900460ff1660ff1660095461232990919063ffffffff16565b61233f90919063ffffffff16565b905080600c60008473ffffffffffffffffffffffffffffffffffffffff1673ffffffffffffffffffffffffffffffffffffffff16815260200190815260200160002060040160008282546111329190612c0a565b92505081905550505b50565b61114f611149611c70565b82612355565b50565b7f000000000000000000000000000000000000000000000000000000000000000081565b61117e611e41565b8060088190555050565b60008060008373ffffffffffffffffffffffffffffffffffffffff1673ffffffffffffffffffffffffffffffffffffffff168152602001908152602001600020549050919050565b6111d8611e41565b6111e2600061252b565b565b600a5481565b6111f482826125f1565b5050565b600b60019054906101000a900460ff1681565b611213611e41565b7f0000000000000000000000000000000000000000000000000000000000000000421015611276576040517f08c379a000000000000000000000000000000000000000000000000000000000815260040161126d90612ae3565b60405180910390fd5b600061128130611188565b9050818110156112c6576040517f08c379a00000000000000000000000000000000000000000000000000000000081526004016112bd90612e1d565b60405180910390fd5b6112d1308484611f4b565b505050565b6000600560009054906101000a900473ffffffffffffffffffffffffffffffffffffffff16905090565b600c60003373ffffffffffffffffffffffffffffffffffffffff1673ffffffffffffffffffffffffffffffffffffffff16815260200190815260200160002060000160009054906101000a900460ff1661138f576040517f08c379a000000000000000000000000000000000000000000000000000000000815260040161138690612b4f565b60405180910390fd5b60006113f8600b60009054906101000a900460ff1660ff16600c60003373ffffffffffffffffffffffffffffffffffffffff1673ffffffffffffffffffffffffffffffffffffffff1681526020019081526020016000206002015461233f90919063ffffffff16565b905060008160085461140a9190612e3d565b90506000811161144f576040517f08c379a000000000000000000000000000000000000000000000000000000000815260040161144690612ecb565b60405180910390fd5b611474600b60009054906101000a900460ff1660ff168361232990919063ffffffff16565b600c60003373ffffffffffffffffffffffffffffffffffffffff1673ffffffffffffffffffffffffffffffffffffffff1681526020019081526020016000206002015410156114c257600080fd5b6114e7600b60009054906101000a900460ff1660ff168361232990919063ffffffff16565b600c60003373ffffffffffffffffffffffffffffffffffffffff1673ffffffffffffffffffffffffffffffffffffffff16815260200190815260200160002060020160008282546115389190612eeb565b9250508190555080471015611582576040517f08c379a000000000000000000000000000000000000000000000000000000000815260040161157990612f6b565b60405180910390fd5b80600c60003373ffffffffffffffffffffffffffffffffffffffff1673ffffffffffffffffffffffffffffffffffffffff16815260200190815260200160002060030160008282546115d49190612c0a565b925050819055503373ffffffffffffffffffffffffffffffffffffffff166108fc829081150290604051600060405180830381858888f19350505050158015611621573d6000803e3d6000fd5b507f2d5429efdeca7741a8cd94067b18d988bc4e5f1d5b8272c37b7bfc31e9bfa32c3382604051611653929190612c3e565b60405180910390a15050565b60606004805461166e90612a66565b80601f016020809104026020016040519081016040528092919081815260200182805461169a90612a66565b80156116e75780601f106116bc576101008083540402835291602001916116e7565b820191906000526020600020905b8154815290600101906020018083116116ca57829003601f168201915b5050505050905090565b600b60009054906101000a900460ff1681565b60008061170f611c70565b9050600061171d82866119aa565b905083811015611762576040517f08c379a000000000000000000000000000000000000000000000000000000000815260040161175990612ffd565b60405180910390fd5b61176f8286868403611c78565b60019250505092915050565b611783611e41565b80600b60016101000a81548160ff021916908360ff16021790555050565b6000806117ac611c70565b90506117b9818585611f4b565b600191505092915050565b600080600080600c60003373ffffffffffffffffffffffffffffffffffffffff1673ffffffffffffffffffffffffffffffffffffffff16815260200190815260200160002060000160009054906101000a900460ff16611859576040517f08c379a000000000000000000000000000000000000000000000000000000000815260040161185090613069565b60405180910390fd5b60006118c2600b60009054906101000a900460ff1660ff16600c60003373ffffffffffffffffffffffffffffffffffffffff1673ffffffffffffffffffffffffffffffffffffffff1681526020019081526020016000206002015461233f90919063ffffffff16565b9050806008546118d29190612e3d565b600c60003373ffffffffffffffffffffffffffffffffffffffff1673ffffffffffffffffffffffffffffffffffffffff16815260200190815260200160002060030154600c60003373ffffffffffffffffffffffffffffffffffffffff1673ffffffffffffffffffffffffffffffffffffffff16815260200190815260200160002060040154600c60003373ffffffffffffffffffffffffffffffffffffffff1673ffffffffffffffffffffffffffffffffffffffff1681526020019081526020016000206005015494509450945094505090919293565b6000600160008473ffffffffffffffffffffffffffffffffffffffff1673ffffffffffffffffffffffffffffffffffffffff16815260200190815260200160002060008373ffffffffffffffffffffffffffffffffffffffff1673ffffffffffffffffffffffffffffffffffffffff16815260200190815260200160002054905092915050565b600080600080600c60003373ffffffffffffffffffffffffffffffffffffffff1673ffffffffffffffffffffffffffffffffffffffff16815260200190815260200160002060000160009054906101000a900460ff16611ac6576040517f08c379a0000000000000000000000000000000000000000000000000000000008152600401611abd90613069565b60405180910390fd5b600c60003373ffffffffffffffffffffffffffffffffffffffff1673ffffffffffffffffffffffffffffffffffffffff16815260200190815260200160002060000160009054906101000a900460ff16600c60003373ffffffffffffffffffffffffffffffffffffffff1673ffffffffffffffffffffffffffffffffffffffff16815260200190815260200160002060010154600c60003373ffffffffffffffffffffffffffffffffffffffff1673ffffffffffffffffffffffffffffffffffffffff16815260200190815260200160002060060154600c60003373ffffffffffffffffffffffffffffffffffffffff1673ffffffffffffffffffffffffffffffffffffffff16815260200190815260200160002060070154935093509350935090919293565b611bf5611e41565b600073ffffffffffffffffffffffffffffffffffffffff168173ffffffffffffffffffffffffffffffffffffffff1603611c64576040517f08c379a0000000000000000000000000000000000000000000000000000000008152600401611c5b906130fb565b60405180910390fd5b611c6d8161252b565b50565b600033905090565b600073ffffffffffffffffffffffffffffffffffffffff168373ffffffffffffffffffffffffffffffffffffffff1603611ce7576040517f08c379a0000000000000000000000000000000000000000000000000000000008152600401611cde9061318d565b60405180910390fd5b600073ffffffffffffffffffffffffffffffffffffffff168273ffffffffffffffffffffffffffffffffffffffff1603611d56576040517f08c379a0000000000000000000000000000000000000000000000000000000008152600401611d4d9061321f565b60405180910390fd5b80600160008573ffffffffffffffffffffffffffffffffffffffff1673ffffffffffffffffffffffffffffffffffffffff16815260200190815260200160002060008473ffffffffffffffffffffffffffffffffffffffff1673ffffffffffffffffffffffffffffffffffffffff168152602001908152602001600020819055508173ffffffffffffffffffffffffffffffffffffffff168373ffffffffffffffffffffffffffffffffffffffff167f8c5be1e5ebec7d5bd14f71427d1e84f3dd0314c0f7b2291e5b200ac8c7c3b92583604051611e349190612634565b60405180910390a3505050565b611e49611c70565b73ffffffffffffffffffffffffffffffffffffffff16611e676112d6565b73ffffffffffffffffffffffffffffffffffffffff1614611ebd576040517f08c379a0000000000000000000000000000000000000000000000000000000008152600401611eb49061328b565b60405180910390fd5b565b6000611ecb84846119aa565b90507fffffffffffffffffffffffffffffffffffffffffffffffffffffffffffffffff8114611f455781811015611f37576040517f08c379a0000000000000000000000000000000000000000000000000000000008152600401611f2e906132f7565b60405180910390fd5b611f448484848403611c78565b5b50505050565b600073ffffffffffffffffffffffffffffffffffffffff168373ffffffffffffffffffffffffffffffffffffffff1603611fba576040517f08c379a0000000000000000000000000000000000000000000000000000000008152600401611fb190613389565b60405180910390fd5b600073ffffffffffffffffffffffffffffffffffffffff168273ffffffffffffffffffffffffffffffffffffffff1603612029576040517f08c379a00000000000000000000000000000000000000000000000000000000081526004016120209061341b565b60405180910390fd5b612034838383612611565b60008060008573ffffffffffffffffffffffffffffffffffffffff1673ffffffffffffffffffffffffffffffffffffffff168152602001908152602001600020549050818110156120ba576040517f08c379a00000000000000000000000000000000000000000000000000000000081526004016120b1906134ad565b60405180910390fd5b8181036000808673ffffffffffffffffffffffffffffffffffffffff1673ffffffffffffffffffffffffffffffffffffffff16815260200190815260200160002081905550816000808573ffffffffffffffffffffffffffffffffffffffff1673ffffffffffffffffffffffffffffffffffffffff168152602001908152602001600020600082825461214d9190612c0a565b925050819055508273ffffffffffffffffffffffffffffffffffffffff168473ffffffffffffffffffffffffffffffffffffffff167fddf252ad1be2c89b69c2b068fc378daa952ba7f163c4a11628f55a4df523b3ef846040516121b19190612634565b60405180910390a36121c4848484612616565b50505050565b600073ffffffffffffffffffffffffffffffffffffffff168273ffffffffffffffffffffffffffffffffffffffff1603612239576040517f08c379a000000000000000000000000000000000000000000000000000000000815260040161223090613519565b60405180910390fd5b61224560008383612611565b80600260008282546122579190612c0a565b92505081905550806000808473ffffffffffffffffffffffffffffffffffffffff1673ffffffffffffffffffffffffffffffffffffffff16815260200190815260200160002060008282546122ac9190612c0a565b925050819055508173ffffffffffffffffffffffffffffffffffffffff16600073ffffffffffffffffffffffffffffffffffffffff167fddf252ad1be2c89b69c2b068fc378daa952ba7f163c4a11628f55a4df523b3ef836040516123119190612634565b60405180910390a361232560008383612616565b5050565b600081836123379190612e3d565b905092915050565b6000818361234d9190613568565b905092915050565b600073ffffffffffffffffffffffffffffffffffffffff168273ffffffffffffffffffffffffffffffffffffffff16036123c4576040517f08c379a00000000000000000000000000000000000000000000000000000000081526004016123bb9061360b565b60405180910390fd5b6123d082600083612611565b60008060008473ffffffffffffffffffffffffffffffffffffffff1673ffffffffffffffffffffffffffffffffffffffff16815260200190815260200160002054905081811015612456576040517f08c379a000000000000000000000000000000000000000000000000000000000815260040161244d9061369d565b60405180910390fd5b8181036000808573ffffffffffffffffffffffffffffffffffffffff1673ffffffffffffffffffffffffffffffffffffffff1681526020019081526020016000208190555081600260008282546124ad9190612eeb565b92505081905550600073ffffffffffffffffffffffffffffffffffffffff168373ffffffffffffffffffffffffffffffffffffffff167fddf252ad1be2c89b69c2b068fc378daa952ba7f163c4a11628f55a4df523b3ef846040516125129190612634565b60405180910390a361252683600084612616565b505050565b6000600560009054906101000a900473ffffffffffffffffffffffffffffffffffffffff16905081600560006101000a81548173ffffffffffffffffffffffffffffffffffffffff021916908373ffffffffffffffffffffffffffffffffffffffff1602179055508173ffffffffffffffffffffffffffffffffffffffff168173ffffffffffffffffffffffffffffffffffffffff167f8be0079c531659141344cd1fd0a4f28419497f9722a3daafe3b4186f6b6457e060405160405180910390a35050565b612603826125fd611c70565b83611ebf565b61260d8282612355565b5050565b505050565b505050565b6000819050919050565b61262e8161261b565b82525050565b60006020820190506126496000830184612625565b92915050565b600081519050919050565b600082825260208201905092915050565b60005b8381101561268957808201518184015260208101905061266e565b60008484015250505050565b6000601f19601f8301169050919050565b60006126b18261264f565b6126bb818561265a565b93506126cb81856020860161266b565b6126d481612695565b840191505092915050565b600060208201905081810360008301526126f981846126a6565b905092915050565b600080fd5b600073ffffffffffffffffffffffffffffffffffffffff82169050919050565b600061273182612706565b9050919050565b61274181612726565b811461274c57600080fd5b50565b60008135905061275e81612738565b92915050565b61276d8161261b565b811461277857600080fd5b50565b60008135905061278a81612764565b92915050565b600080604083850312156127a7576127a6612701565b5b60006127b58582860161274f565b92505060206127c68582860161277b565b9150509250929050565b60008115159050919050565b6127e5816127d0565b82525050565b600060208201905061280060008301846127dc565b92915050565b600060ff82169050919050565b61281c81612806565b811461282757600080fd5b50565b60008135905061283981612813565b92915050565b60006020828403121561285557612854612701565b5b60006128638482850161282a565b91505092915050565b60008060006060848603121561288557612884612701565b5b60006128938682870161274f565b93505060206128a48682870161274f565b92505060406128b58682870161277b565b9150509250925092565b6128c881612806565b82525050565b60006020820190506128e360008301846128bf565b92915050565b6000602082840312156128ff576128fe612701565b5b600061290d8482850161277b565b91505092915050565b60006020828403121561292c5761292b612701565b5b600061293a8482850161274f565b91505092915050565b61294c81612726565b82525050565b60006020820190506129676000830184612943565b92915050565b60006080820190506129826000830187612625565b61298f6020830186612625565b61299c6040830185612625565b6129a96060830184612625565b95945050505050565b600080604083850312156129c9576129c8612701565b5b60006129d78582860161274f565b92505060206129e88582860161274f565b9150509250929050565b6000608082019050612a0760008301876127dc565b612a146020830186612625565b612a216040830185612625565b612a2e6060830184612625565b95945050505050565b7f4e487b7100000000000000000000000000000000000000000000000000000000600052602260045260246000fd5b60006002820490506001821680612a7e57607f821691505b602082108103612a9157612a90612a37565b5b50919050565b7f737562736372696265206e6f7420656e64210000000000000000000000000000600082015250565b6000612acd60128361265a565b9150612ad882612a97565b602082019050919050565b60006020820190508181036000830152612afc81612ac0565b9050919050565b7f4e6f20636c61696d207175616c696669636174696f6e73210000000000000000600082015250565b6000612b3960188361265a565b9150612b4482612b03565b602082019050919050565b60006020820190508181036000830152612b6881612b2c565b9050919050565b7f4e6f20656e6f75676820746f6b656e20746f20636c61696d0000000000000000600082015250565b6000612ba560188361265a565b9150612bb082612b6f565b602082019050919050565b60006020820190508181036000830152612bd481612b98565b9050919050565b7f4e487b7100000000000000000000000000000000000000000000000000000000600052601160045260246000fd5b6000612c158261261b565b9150612c208361261b565b9250828201905080821115612c3857612c37612bdb565b5b92915050565b6000604082019050612c536000830185612943565b612c606020830184612625565b9392505050565b7f75736572732063616e277420696e76697465207468656d73656c766573210000600082015250565b6000612c9d601e8361265a565b9150612ca882612c67565b602082019050919050565b60006020820190508181036000830152612ccc81612c90565b9050919050565b7f76616c75652073686f756c6420626520302e3120457468657200000000000000600082015250565b6000612d0960198361265a565b9150612d1482612cd3565b602082019050919050565b60006020820190508181036000830152612d3881612cfc565b9050919050565b7f7468657265206973206e6f20656e6f75676820746f6b656e20746f207375627360008201527f6372696265210000000000000000000000000000000000000000000000000000602082015250565b6000612d9b60268361265a565b9150612da682612d3f565b604082019050919050565b60006020820190508181036000830152612dca81612d8e565b9050919050565b7f746f6b656e2062616c616e6365206e6f7420656e6f7567682100000000000000600082015250565b6000612e0760198361265a565b9150612e1282612dd1565b602082019050919050565b60006020820190508181036000830152612e3681612dfa565b9050919050565b6000612e488261261b565b9150612e538361261b565b9250828202612e618161261b565b91508282048414831517612e7857612e77612bdb565b5b5092915050565b7f497420646f65736e2774206d6565742074686520636f6e646974696f6e730000600082015250565b6000612eb5601e8361265a565b9150612ec082612e7f565b602082019050919050565b60006020820190508181036000830152612ee481612ea8565b9050919050565b6000612ef68261261b565b9150612f018361261b565b9250828203905081811115612f1957612f18612bdb565b5b92915050565b7f4e6f20656e6f756768207265776172647320746f20636c61696d210000000000600082015250565b6000612f55601b8361265a565b9150612f6082612f1f565b602082019050919050565b60006020820190508181036000830152612f8481612f48565b9050919050565b7f45524332303a2064656372656173656420616c6c6f77616e63652062656c6f7760008201527f207a65726f000000000000000000000000000000000000000000000000000000602082015250565b6000612fe760258361265a565b9150612ff282612f8b565b604082019050919050565b6000602082019050818103600083015261301681612fda565b9050919050565b7f75736572206e6f20696e7669746174696f6e7320696e666f2100000000000000600082015250565b600061305360198361265a565b915061305e8261301d565b602082019050919050565b6000602082019050818103600083015261308281613046565b9050919050565b7f4f776e61626c653a206e6577206f776e657220697320746865207a65726f206160008201527f6464726573730000000000000000000000000000000000000000000000000000602082015250565b60006130e560268361265a565b91506130f082613089565b604082019050919050565b60006020820190508181036000830152613114816130d8565b9050919050565b7f45524332303a20617070726f76652066726f6d20746865207a65726f2061646460008201527f7265737300000000000000000000000000000000000000000000000000000000602082015250565b600061317760248361265a565b91506131828261311b565b604082019050919050565b600060208201905081810360008301526131a68161316a565b9050919050565b7f45524332303a20617070726f766520746f20746865207a65726f20616464726560008201527f7373000000000000000000000000000000000000000000000000000000000000602082015250565b600061320960228361265a565b9150613214826131ad565b604082019050919050565b60006020820190508181036000830152613238816131fc565b9050919050565b7f4f776e61626c653a2063616c6c6572206973206e6f7420746865206f776e6572600082015250565b600061327560208361265a565b91506132808261323f565b602082019050919050565b600060208201905081810360008301526132a481613268565b9050919050565b7f45524332303a20696e73756666696369656e7420616c6c6f77616e6365000000600082015250565b60006132e1601d8361265a565b91506132ec826132ab565b602082019050919050565b60006020820190508181036000830152613310816132d4565b9050919050565b7f45524332303a207472616e736665722066726f6d20746865207a65726f20616460008201527f6472657373000000000000000000000000000000000000000000000000000000602082015250565b600061337360258361265a565b915061337e82613317565b604082019050919050565b600060208201905081810360008301526133a281613366565b9050919050565b7f45524332303a207472616e7366657220746f20746865207a65726f206164647260008201527f6573730000000000000000000000000000000000000000000000000000000000602082015250565b600061340560238361265a565b9150613410826133a9565b604082019050919050565b60006020820190508181036000830152613434816133f8565b9050919050565b7f45524332303a207472616e7366657220616d6f756e742065786365656473206260008201527f616c616e63650000000000000000000000000000000000000000000000000000602082015250565b600061349760268361265a565b91506134a28261343b565b604082019050919050565b600060208201905081810360008301526134c68161348a565b9050919050565b7f45524332303a206d696e7420746f20746865207a65726f206164647265737300600082015250565b6000613503601f8361265a565b915061350e826134cd565b602082019050919050565b60006020820190508181036000830152613532816134f6565b9050919050565b7f4e487b7100000000000000000000000000000000000000000000000000000000600052601260045260246000fd5b60006135738261261b565b915061357e8361261b565b92508261358e5761358d613539565b5b828204905092915050565b7f45524332303a206275726e2066726f6d20746865207a65726f2061646472657360008201527f7300000000000000000000000000000000000000000000000000000000000000602082015250565b60006135f560218361265a565b915061360082613599565b604082019050919050565b60006020820190508181036000830152613624816135e8565b9050919050565b7f45524332303a206275726e20616d6f756e7420657863656564732062616c616e60008201527f6365000000000000000000000000000000000000000000000000000000000000602082015250565b600061368760228361265a565b91506136928261362b565b604082019050919050565b600060208201905081810360008301526136b68161367a565b905091905056fea2646970667358221220a0a9808d82ae5d1b3648306d91dbb4bda6f83fd08eb38d8c8913a336ba63b9fe64736f6c63430008110033",
  "linkReferences": {},
  "deployedLinkReferences": {}
}