{
  "_format": "hh-sol-artifact-1",
  "contractName": "FEWToken",
  "sourceName": "contracts/FEWToken.sol",
  "abi": [
    {
      "inputs": [
        {
          "internalType": "address",
          "name": "controller0",
          "type": "address"
        },
        {
          "internalType": "address",
          "name": "controller1",
          "type": "address"
        },
        {
          "internalType": "address",
          "name": "controller2",
          "type": "address"
        }
      ],
      "stateMutability": "nonpayable",
      "type": "constructor"
    },
    {
      "anonymous": false,
      "inputs": [
        {
          "indexed": true,
          "internalType": "address",
          "name": "owner",
          "type": "address"
        },
        {
          "indexed": true,
          "internalType": "address",
          "name": "spender",
          "type": "address"
        },
        {
          "indexed": false,
          "internalType": "uint256",
          "name": "value",
          "type": "uint256"
        }
      ],
      "name": "Approval",
      "type": "event"
    },
    {
      "anonymous": false,
      "inputs": [
        {
          "indexed": false,
          "internalType": "address",
          "name": "account",
          "type": "address"
        },
        {
          "indexed": false,
          "internalType": "uint256",
          "name": "amount",
          "type": "uint256"
        }
      ],
      "name": "ClaimedRewards",
      "type": "event"
    },
    {
      "anonymous": false,
      "inputs": [
        {
          "indexed": false,
          "internalType": "address",
          "name": "account",
          "type": "address"
        },
        {
          "indexed": false,
          "internalType": "uint256",
          "name": "amount",
          "type": "uint256"
        }
      ],
      "name": "ClaimedToken",
      "type": "event"
    },
    {
      "anonymous": false,
      "inputs": [
        {
          "indexed": true,
          "internalType": "address",
          "name": "previousOwner",
          "type": "address"
        },
        {
          "indexed": true,
          "internalType": "address",
          "name": "newOwner",
          "type": "address"
        }
      ],
      "name": "OwnershipTransferred",
      "type": "event"
    },
    {
      "anonymous": false,
      "inputs": [
        {
          "indexed": true,
          "internalType": "address",
          "name": "from",
          "type": "address"
        },
        {
          "indexed": true,
          "internalType": "address",
          "name": "to",
          "type": "address"
        },
        {
          "indexed": false,
          "internalType": "uint256",
          "name": "value",
          "type": "uint256"
        }
      ],
      "name": "Transfer",
      "type": "event"
    },
    {
      "inputs": [],
      "name": "IsInviter",
      "outputs": [
        {
          "internalType": "bool",
          "name": "",
          "type": "bool"
        }
      ],
      "stateMutability": "view",
      "type": "function"
    },
    {
      "inputs": [
        {
          "internalType": "address",
          "name": "owner",
          "type": "address"
        },
        {
          "internalType": "address",
          "name": "spender",
          "type": "address"
        }
      ],
      "name": "allowance",
      "outputs": [
        {
          "internalType": "uint256",
          "name": "",
          "type": "uint256"
        }
      ],
      "stateMutability": "view",
      "type": "function"
    },
    {
      "inputs": [
        {
          "internalType": "address",
          "name": "spender",
          "type": "address"
        },
        {
          "internalType": "uint256",
          "name": "amount",
          "type": "uint256"
        }
      ],
      "name": "approve",
      "outputs": [
        {
          "internalType": "bool",
          "name": "",
          "type": "bool"
        }
      ],
      "stateMutability": "nonpayable",
      "type": "function"
    },
    {
      "inputs": [
        {
          "internalType": "address",
          "name": "account",
          "type": "address"
        }
      ],
      "name": "balanceOf",
      "outputs": [
        {
          "internalType": "uint256",
          "name": "",
          "type": "uint256"
        }
      ],
      "stateMutability": "view",
      "type": "function"
    },
    {
      "inputs": [
        {
          "internalType": "uint256",
          "name": "amount",
          "type": "uint256"
        }
      ],
      "name": "burn",
      "outputs": [],
      "stateMutability": "nonpayable",
      "type": "function"
    },
    {
      "inputs": [
        {
          "internalType": "address",
          "name": "account",
          "type": "address"
        },
        {
          "internalType": "uint256",
          "name": "amount",
          "type": "uint256"
        }
      ],
      "name": "burnFrom",
      "outputs": [],
      "stateMutability": "nonpayable",
      "type": "function"
    },
    {
      "inputs": [],
      "name": "claimExtra_E",
      "outputs": [],
      "stateMutability": "nonpayable",
      "type": "function"
    },
    {
      "inputs": [],
      "name": "claim_E",
      "outputs": [],
      "stateMutability": "nonpayable",
      "type": "function"
    },
    {
      "inputs": [],
      "name": "claim_T",
      "outputs": [],
      "stateMutability": "nonpayable",
      "type": "function"
    },
    {
      "inputs": [],
      "name": "decimals",
      "outputs": [
        {
          "internalType": "uint8",
          "name": "",
          "type": "uint8"
        }
      ],
      "stateMutability": "view",
      "type": "function"
    },
    {
      "inputs": [
        {
          "internalType": "address",
          "name": "spender",
          "type": "address"
        },
        {
          "internalType": "uint256",
          "name": "subtractedValue",
          "type": "uint256"
        }
      ],
      "name": "decreaseAllowance",
      "outputs": [
        {
          "internalType": "bool",
          "name": "",
          "type": "bool"
        }
      ],
      "stateMutability": "nonpayable",
      "type": "function"
    },
    {
      "inputs": [],
      "name": "extraBase",
      "outputs": [
        {
          "internalType": "uint8",
          "name": "",
          "type": "uint8"
        }
      ],
      "stateMutability": "view",
      "type": "function"
    },
    {
      "inputs": [
        {
          "internalType": "address",
          "name": "account",
          "type": "address"
        }
      ],
      "name": "getInviteInfo",
      "outputs": [
        {
          "internalType": "bool",
          "name": "isInviter",
          "type": "bool"
        },
        {
          "internalType": "uint256",
          "name": "totalInvitationNums",
          "type": "uint256"
        },
        {
          "internalType": "uint256",
          "name": "UnclaimNum",
          "type": "uint256"
        },
        {
          "internalType": "uint256",
          "name": "extraNums",
          "type": "uint256"
        },
        {
          "internalType": "uint256",
          "name": "subscribe_fee",
          "type": "uint256"
        },
        {
          "internalType": "uint256",
          "name": "subscribe_amount",
          "type": "uint256"
        }
      ],
      "stateMutability": "view",
      "type": "function"
    },
    {
      "inputs": [
        {
          "internalType": "address",
          "name": "account",
          "type": "address"
        }
      ],
      "name": "getRewardsInfo",
      "outputs": [
        {
          "internalType": "uint256",
          "name": "rewards_e",
          "type": "uint256"
        },
        {
          "internalType": "uint256",
          "name": "claimed_e",
          "type": "uint256"
        },
        {
          "internalType": "uint256",
          "name": "rewards_t",
          "type": "uint256"
        },
        {
          "internalType": "uint256",
          "name": "claimed_t",
          "type": "uint256"
        }
      ],
      "stateMutability": "view",
      "type": "function"
    },
    {
      "inputs": [
        {
          "internalType": "address",
          "name": "spender",
          "type": "address"
        },
        {
          "internalType": "uint256",
          "name": "addedValue",
          "type": "uint256"
        }
      ],
      "name": "increaseAllowance",
      "outputs": [
        {
          "internalType": "bool",
          "name": "",
          "type": "bool"
        }
      ],
      "stateMutability": "nonpayable",
      "type": "function"
    },
    {
      "inputs": [],
      "name": "inviteeBase",
      "outputs": [
        {
          "internalType": "uint8",
          "name": "",
          "type": "uint8"
        }
      ],
      "stateMutability": "view",
      "type": "function"
    },
    {
      "inputs": [
        {
          "internalType": "address",
          "name": "account",
          "type": "address"
        },
        {
          "internalType": "uint256",
          "name": "amount",
          "type": "uint256"
        }
      ],
      "name": "mint",
      "outputs": [],
      "stateMutability": "nonpayable",
      "type": "function"
    },
    {
      "inputs": [],
      "name": "name",
      "outputs": [
        {
          "internalType": "string",
          "name": "",
          "type": "string"
        }
      ],
      "stateMutability": "view",
      "type": "function"
    },
    {
      "inputs": [],
      "name": "owner",
      "outputs": [
        {
          "internalType": "address",
          "name": "",
          "type": "address"
        }
      ],
      "stateMutability": "view",
      "type": "function"
    },
    {
      "inputs": [],
      "name": "renounceOwnership",
      "outputs": [],
      "stateMutability": "nonpayable",
      "type": "function"
    },
    {
      "inputs": [],
      "name": "rewardsBase",
      "outputs": [
        {
          "internalType": "uint8",
          "name": "",
          "type": "uint8"
        }
      ],
      "stateMutability": "view",
      "type": "function"
    },
    {
      "inputs": [
        {
          "internalType": "uint8",
          "name": "_rewBase",
          "type": "uint8"
        }
      ],
      "name": "setRewardsBase",
      "outputs": [],
      "stateMutability": "nonpayable",
      "type": "function"
    },
    {
      "inputs": [
        {
          "internalType": "uint256",
          "name": "_subAmount",
          "type": "uint256"
        }
      ],
      "name": "setSubscribeAmount",
      "outputs": [],
      "stateMutability": "nonpayable",
      "type": "function"
    },
    {
      "inputs": [
        {
          "internalType": "uint256",
          "name": "_subFee",
          "type": "uint256"
        }
      ],
      "name": "setSubscribeFee",
      "outputs": [],
      "stateMutability": "nonpayable",
      "type": "function"
    },
    {
      "inputs": [
        {
          "internalType": "address",
          "name": "inviter",
          "type": "address"
        }
      ],
      "name": "subscribe",
      "outputs": [],
      "stateMutability": "payable",
      "type": "function"
    },
    {
      "inputs": [],
      "name": "subscribeAmount",
      "outputs": [
        {
          "internalType": "uint256",
          "name": "",
          "type": "uint256"
        }
      ],
      "stateMutability": "view",
      "type": "function"
    },
    {
      "inputs": [],
      "name": "subscribeFee",
      "outputs": [
        {
          "internalType": "uint256",
          "name": "",
          "type": "uint256"
        }
      ],
      "stateMutability": "view",
      "type": "function"
    },
    {
      "inputs": [],
      "name": "supply",
      "outputs": [
        {
          "internalType": "uint256",
          "name": "",
          "type": "uint256"
        }
      ],
      "stateMutability": "view",
      "type": "function"
    },
    {
      "inputs": [],
      "name": "symbol",
      "outputs": [
        {
          "internalType": "string",
          "name": "",
          "type": "string"
        }
      ],
      "stateMutability": "view",
      "type": "function"
    },
    {
      "inputs": [],
      "name": "totalSubscribe",
      "outputs": [
        {
          "internalType": "uint256",
          "name": "",
          "type": "uint256"
        }
      ],
      "stateMutability": "view",
      "type": "function"
    },
    {
      "inputs": [],
      "name": "totalSupply",
      "outputs": [
        {
          "internalType": "uint256",
          "name": "",
          "type": "uint256"
        }
      ],
      "stateMutability": "view",
      "type": "function"
    },
    {
      "inputs": [
        {
          "internalType": "address",
          "name": "to",
          "type": "address"
        },
        {
          "internalType": "uint256",
          "name": "amount",
          "type": "uint256"
        }
      ],
      "name": "transfer",
      "outputs": [
        {
          "internalType": "bool",
          "name": "",
          "type": "bool"
        }
      ],
      "stateMutability": "nonpayable",
      "type": "function"
    },
    {
      "inputs": [
        {
          "internalType": "address",
          "name": "from",
          "type": "address"
        },
        {
          "internalType": "address",
          "name": "to",
          "type": "address"
        },
        {
          "internalType": "uint256",
          "name": "amount",
          "type": "uint256"
        }
      ],
      "name": "transferFrom",
      "outputs": [
        {
          "internalType": "bool",
          "name": "",
          "type": "bool"
        }
      ],
      "stateMutability": "nonpayable",
      "type": "function"
    },
    {
      "inputs": [
        {
          "internalType": "address",
          "name": "newOwner",
          "type": "address"
        }
      ],
      "name": "transferOwnership",
      "outputs": [],
      "stateMutability": "nonpayable",
      "type": "function"
    },
    {
      "inputs": [],
      "name": "withDraw",
      "outputs": [],
      "stateMutability": "nonpayable",
      "type": "function"
    },
    {
      "inputs": [
        {
          "internalType": "address",
          "name": "account",
          "type": "address"
        },
        {
          "internalType": "uint256",
          "name": "amount",
          "type": "uint256"
        }
      ],
      "name": "withDrawToken",
      "outputs": [],
      "stateMutability": "nonpayable",
      "type": "function"
    }
  ],
  "bytecode": "0x60806040526b06c9144c1c690d4cb400000060075567016345785d8a000060085569152d02c7e14af68000006009556005600b60006101000a81548160ff021916908360ff1602179055503480156200005757600080fd5b506040516200443b3803806200443b83398181016040528101906200007d91906200052f565b6040518060400160405280600881526020017f464557546f6b656e0000000000000000000000000000000000000000000000008152506040518060400160405280600381526020017f46455700000000000000000000000000000000000000000000000000000000008152508160039081620000fa919062000805565b5080600490816200010c919062000805565b5050506200012f620001236200027560201b60201c565b6200027d60201b60201c565b62000143306007546200034360201b60201c565b6006839080600181540180825580915050600190039060005260206000200160009091909190916101000a81548173ffffffffffffffffffffffffffffffffffffffff021916908373ffffffffffffffffffffffffffffffffffffffff1602179055506006829080600181540180825580915050600190039060005260206000200160009091909190916101000a81548173ffffffffffffffffffffffffffffffffffffffff021916908373ffffffffffffffffffffffffffffffffffffffff1602179055506006819080600181540180825580915050600190039060005260206000200160009091909190916101000a81548173ffffffffffffffffffffffffffffffffffffffff021916908373ffffffffffffffffffffffffffffffffffffffff16021790555050505062000a07565b600033905090565b6000600560009054906101000a900473ffffffffffffffffffffffffffffffffffffffff16905081600560006101000a81548173ffffffffffffffffffffffffffffffffffffffff021916908373ffffffffffffffffffffffffffffffffffffffff1602179055508173ffffffffffffffffffffffffffffffffffffffff168173ffffffffffffffffffffffffffffffffffffffff167f8be0079c531659141344cd1fd0a4f28419497f9722a3daafe3b4186f6b6457e060405160405180910390a35050565b600073ffffffffffffffffffffffffffffffffffffffff168273ffffffffffffffffffffffffffffffffffffffff1603620003b5576040517f08c379a0000000000000000000000000000000000000000000000000000000008152600401620003ac906200094d565b60405180910390fd5b620003c960008383620004bb60201b60201c565b8060026000828254620003dd91906200099e565b92505081905550806000808473ffffffffffffffffffffffffffffffffffffffff1673ffffffffffffffffffffffffffffffffffffffff16815260200190815260200160002060008282546200043491906200099e565b925050819055508173ffffffffffffffffffffffffffffffffffffffff16600073ffffffffffffffffffffffffffffffffffffffff167fddf252ad1be2c89b69c2b068fc378daa952ba7f163c4a11628f55a4df523b3ef836040516200049b9190620009ea565b60405180910390a3620004b760008383620004c060201b60201c565b5050565b505050565b505050565b600080fd5b600073ffffffffffffffffffffffffffffffffffffffff82169050919050565b6000620004f782620004ca565b9050919050565b6200050981620004ea565b81146200051557600080fd5b50565b6000815190506200052981620004fe565b92915050565b6000806000606084860312156200054b576200054a620004c5565b5b60006200055b8682870162000518565b93505060206200056e8682870162000518565b9250506040620005818682870162000518565b9150509250925092565b600081519050919050565b7f4e487b7100000000000000000000000000000000000000000000000000000000600052604160045260246000fd5b7f4e487b7100000000000000000000000000000000000000000000000000000000600052602260045260246000fd5b600060028204905060018216806200060d57607f821691505b602082108103620006235762000622620005c5565b5b50919050565b60008190508160005260206000209050919050565b60006020601f8301049050919050565b600082821b905092915050565b6000600883026200068d7fffffffffffffffffffffffffffffffffffffffffffffffffffffffffffffffff826200064e565b6200069986836200064e565b95508019841693508086168417925050509392505050565b6000819050919050565b6000819050919050565b6000620006e6620006e0620006da84620006b1565b620006bb565b620006b1565b9050919050565b6000819050919050565b6200070283620006c5565b6200071a6200071182620006ed565b8484546200065b565b825550505050565b600090565b6200073162000722565b6200073e818484620006f7565b505050565b5b8181101562000766576200075a60008262000727565b60018101905062000744565b5050565b601f821115620007b5576200077f8162000629565b6200078a846200063e565b810160208510156200079a578190505b620007b2620007a9856200063e565b83018262000743565b50505b505050565b600082821c905092915050565b6000620007da60001984600802620007ba565b1980831691505092915050565b6000620007f58383620007c7565b9150826002028217905092915050565b62000810826200058b565b67ffffffffffffffff8111156200082c576200082b62000596565b5b620008388254620005f4565b620008458282856200076a565b600060209050601f8311600181146200087d576000841562000868578287015190505b620008748582620007e7565b865550620008e4565b601f1984166200088d8662000629565b60005b82811015620008b75784890151825560018201915060208501945060208101905062000890565b86831015620008d75784890151620008d3601f891682620007c7565b8355505b6001600288020188555050505b505050505050565b600082825260208201905092915050565b7f45524332303a206d696e7420746f20746865207a65726f206164647265737300600082015250565b600062000935601f83620008ec565b91506200094282620008fd565b602082019050919050565b60006020820190508181036000830152620009688162000926565b9050919050565b7f4e487b7100000000000000000000000000000000000000000000000000000000600052601160045260246000fd5b6000620009ab82620006b1565b9150620009b883620006b1565b9250828201905080821115620009d357620009d26200096f565b5b92915050565b620009e481620006b1565b82525050565b600060208201905062000a016000830184620009d9565b92915050565b613a248062000a176000396000f3fe60806040526004361061020f5760003560e01c8063715018a6116101185780639fcad192116100a0578063cf8122ef1161006f578063cf8122ef1461075f578063d243d7411461078a578063dd62ed3e146107ca578063f2fde38b14610807578063f8bb3f49146108305761020f565b80639fcad19214610691578063a457c2d7146106bc578063a6ede724146106f9578063a9059cbb146107225761020f565b806385bc7071116100e757806385bc7071146105d05780638da5cb5b146105f957806392d0cb511461062457806395d89b411461063b578063968bf74b146106665761020f565b8063715018a61461053a5780637543321f1461055157806379cc67901461057c57806382a3bc2d146105a55761020f565b806331f4a5dd1161019b57806341a7726a1161016a57806341a7726a1461044d57806342966c681461046957806345d3f19714610492578063701060c2146104d457806370a08231146104fd5761020f565b806331f4a5dd146103a757806332fc318f146103be57806339509351146103e757806340c10f19146104245761020f565b8063130b4c09116101e2578063130b4c09146102be578063134ac62f146102e957806318160ddd1461031457806323b872dd1461033f578063313ce5671461037c5761020f565b8063047fc9aa1461021457806306fdde031461023f578063095ea7b31461026a5780630fdb1c10146102a7575b600080fd5b34801561022057600080fd5b50610229610847565b604051610236919061293e565b60405180910390f35b34801561024b57600080fd5b5061025461084d565b60405161026191906129e9565b60405180910390f35b34801561027657600080fd5b50610291600480360381019061028c9190612a9a565b6108df565b60405161029e9190612af5565b60405180910390f35b3480156102b357600080fd5b506102bc610902565b005b3480156102ca57600080fd5b506102d3610a11565b6040516102e0919061293e565b60405180910390f35b3480156102f557600080fd5b506102fe610a17565b60405161030b919061293e565b60405180910390f35b34801561032057600080fd5b50610329610a1d565b604051610336919061293e565b60405180910390f35b34801561034b57600080fd5b5061036660048036038101906103619190612b10565b610a27565b6040516103739190612af5565b60405180910390f35b34801561038857600080fd5b50610391610a56565b60405161039e9190612b7f565b60405180910390f35b3480156103b357600080fd5b506103bc610a5f565b005b3480156103ca57600080fd5b506103e560048036038101906103e09190612b9a565b610d28565b005b3480156103f357600080fd5b5061040e60048036038101906104099190612a9a565b610d3a565b60405161041b9190612af5565b60405180910390f35b34801561043057600080fd5b5061044b60048036038101906104469190612a9a565b610d71565b005b61046760048036038101906104629190612bc7565b610d87565b005b34801561047557600080fd5b50610490600480360381019061048b9190612b9a565b611211565b005b34801561049e57600080fd5b506104b960048036038101906104b49190612bc7565b611225565b6040516104cb96959493929190612bf4565b60405180910390f35b3480156104e057600080fd5b506104fb60048036038101906104f69190612b9a565b6113e2565b005b34801561050957600080fd5b50610524600480360381019061051f9190612bc7565b6113f4565b604051610531919061293e565b60405180910390f35b34801561054657600080fd5b5061054f61143c565b005b34801561055d57600080fd5b50610566611450565b604051610573919061293e565b60405180910390f35b34801561058857600080fd5b506105a3600480360381019061059e9190612a9a565b611456565b005b3480156105b157600080fd5b506105ba611464565b6040516105c79190612b7f565b60405180910390f35b3480156105dc57600080fd5b506105f760048036038101906105f29190612a9a565b611477565b005b34801561060557600080fd5b5061060e6114df565b60405161061b9190612c64565b60405180910390f35b34801561063057600080fd5b50610639611509565b005b34801561064757600080fd5b5061065061183e565b60405161065d91906129e9565b60405180910390f35b34801561067257600080fd5b5061067b6118d0565b6040516106889190612b7f565b60405180910390f35b34801561069d57600080fd5b506106a66118d5565b6040516106b39190612b7f565b60405180910390f35b3480156106c857600080fd5b506106e360048036038101906106de9190612a9a565b6118da565b6040516106f09190612af5565b60405180910390f35b34801561070557600080fd5b50610720600480360381019061071b9190612cab565b611951565b005b34801561072e57600080fd5b5061074960048036038101906107449190612a9a565b611977565b6040516107569190612af5565b60405180910390f35b34801561076b57600080fd5b5061077461199a565b6040516107819190612af5565b60405180910390f35b34801561079657600080fd5b506107b160048036038101906107ac9190612bc7565b6119f1565b6040516107c19493929190612cd8565b60405180910390f35b3480156107d657600080fd5b506107f160048036038101906107ec9190612d1d565b611b3b565b6040516107fe919061293e565b60405180910390f35b34801561081357600080fd5b5061082e60048036038101906108299190612bc7565b611bc2565b005b34801561083c57600080fd5b50610845611c45565b005b60075481565b60606003805461085c90612d8c565b80601f016020809104026020016040519081016040528092919081815260200182805461088890612d8c565b80156108d55780601f106108aa576101008083540402835291602001916108d5565b820191906000526020600020905b8154815290600101906020018083116108b857829003601f168201915b5050505050905090565b6000806108ea611f7a565b90506108f7818585611f82565b600191505092915050565b61090a61214b565b600047905060008111610952576040517f08c379a000000000000000000000000000000000000000000000000000000000815260040161094990612e09565b60405180910390fd5b60005b600680549050811015610a0d576006818154811061097657610975612e29565b5b9060005260206000200160009054906101000a900473ffffffffffffffffffffffffffffffffffffffff1673ffffffffffffffffffffffffffffffffffffffff166108fc6109ce6003856121c990919063ffffffff16565b9081150290604051600060405180830381858888f193505050501580156109f9573d6000803e3d6000fd5b508080610a0590612e87565b915050610955565b5050565b60095481565b60085481565b6000600254905090565b600080610a32611f7a565b9050610a3f8582856121df565b610a4a85858561226b565b60019150509392505050565b60006012905090565b600c60003373ffffffffffffffffffffffffffffffffffffffff1673ffffffffffffffffffffffffffffffffffffffff16815260200190815260200160002060000160009054906101000a900460ff16610aee576040517f08c379a0000000000000000000000000000000000000000000000000000000008152600401610ae590612f1b565b60405180910390fd5b600c60003373ffffffffffffffffffffffffffffffffffffffff1673ffffffffffffffffffffffffffffffffffffffff16815260200190815260200160002060050154610b3a306113f4565b1015610b7b576040517f08c379a0000000000000000000000000000000000000000000000000000000008152600401610b7290612f87565b60405180910390fd5b610bc83033600c60003373ffffffffffffffffffffffffffffffffffffffff1673ffffffffffffffffffffffffffffffffffffffff1681526020019081526020016000206005015461226b565b600c60003373ffffffffffffffffffffffffffffffffffffffff1673ffffffffffffffffffffffffffffffffffffffff16815260200190815260200160002060050154600c60003373ffffffffffffffffffffffffffffffffffffffff1673ffffffffffffffffffffffffffffffffffffffff1681526020019081526020016000206006016000828254610c5c9190612fa7565b925050819055507f9f2482fecb753a122941f19538876a5b4fdc080a83d01c5f28edde774561cc7433600c60003373ffffffffffffffffffffffffffffffffffffffff1673ffffffffffffffffffffffffffffffffffffffff16815260200190815260200160002060050154604051610cd6929190612fdb565b60405180910390a16000600c60003373ffffffffffffffffffffffffffffffffffffffff1673ffffffffffffffffffffffffffffffffffffffff16815260200190815260200160002060050181905550565b610d3061214b565b8060098190555050565b600080610d45611f7a565b9050610d66818585610d578589611b3b565b610d619190612fa7565b611f82565b600191505092915050565b610d7961214b565b610d8382826124ea565b5050565b8073ffffffffffffffffffffffffffffffffffffffff163373ffffffffffffffffffffffffffffffffffffffff1603610df5576040517f08c379a0000000000000000000000000000000000000000000000000000000008152600401610dec90613050565b60405180910390fd5b6008543414610e39576040517f08c379a0000000000000000000000000000000000000000000000000000000008152600401610e30906130bc565b60405180910390fd5b600954610e45306113f4565b1015610e86576040517f08c379a0000000000000000000000000000000000000000000000000000000008152600401610e7d9061314e565b60405180910390fd5b610e93303360095461226b565b600954600a6000828254610ea79190612fa7565b9250508190555034600c60003373ffffffffffffffffffffffffffffffffffffffff1673ffffffffffffffffffffffffffffffffffffffff1681526020019081526020016000206007016000828254610f009190612fa7565b92505081905550600954600c60003373ffffffffffffffffffffffffffffffffffffffff1673ffffffffffffffffffffffffffffffffffffffff1681526020019081526020016000206008016000828254610f5b9190612fa7565b92505081905550600c60003373ffffffffffffffffffffffffffffffffffffffff1673ffffffffffffffffffffffffffffffffffffffff16815260200190815260200160002060000160009054906101000a900460ff16611012576001600c60003373ffffffffffffffffffffffffffffffffffffffff1673ffffffffffffffffffffffffffffffffffffffff16815260200190815260200160002060000160006101000a81548160ff0219169083151502179055505b600c60008273ffffffffffffffffffffffffffffffffffffffff1673ffffffffffffffffffffffffffffffffffffffff16815260200190815260200160002060000160009054906101000a900460ff161561120e576001600c60008373ffffffffffffffffffffffffffffffffffffffff1673ffffffffffffffffffffffffffffffffffffffff16815260200190815260200160002060010160008282546110ba9190612fa7565b925050819055506001600c60008373ffffffffffffffffffffffffffffffffffffffff1673ffffffffffffffffffffffffffffffffffffffff16815260200190815260200160002060020160008282546111149190612fa7565b925050819055506001600c60008373ffffffffffffffffffffffffffffffffffffffff1673ffffffffffffffffffffffffffffffffffffffff168152602001908152602001600020600301600082825461116e9190612fa7565b9250508190555060006111b160646111a3600b60009054906101000a900460ff1660ff1660095461264990919063ffffffff16565b6121c990919063ffffffff16565b905080600c60008473ffffffffffffffffffffffffffffffffffffffff1673ffffffffffffffffffffffffffffffffffffffff16815260200190815260200160002060050160008282546112059190612fa7565b92505081905550505b50565b61122261121c611f7a565b8261265f565b50565b600080600080600080600c60008873ffffffffffffffffffffffffffffffffffffffff1673ffffffffffffffffffffffffffffffffffffffff16815260200190815260200160002060000160009054906101000a900460ff16600c60008973ffffffffffffffffffffffffffffffffffffffff1673ffffffffffffffffffffffffffffffffffffffff16815260200190815260200160002060010154600c60008a73ffffffffffffffffffffffffffffffffffffffff1673ffffffffffffffffffffffffffffffffffffffff16815260200190815260200160002060020154600c60008b73ffffffffffffffffffffffffffffffffffffffff1673ffffffffffffffffffffffffffffffffffffffff16815260200190815260200160002060030154600c60008c73ffffffffffffffffffffffffffffffffffffffff1673ffffffffffffffffffffffffffffffffffffffff16815260200190815260200160002060070154600c60008d73ffffffffffffffffffffffffffffffffffffffff1673ffffffffffffffffffffffffffffffffffffffff1681526020019081526020016000206008015495509550955095509550955091939550919395565b6113ea61214b565b8060088190555050565b60008060008373ffffffffffffffffffffffffffffffffffffffff1673ffffffffffffffffffffffffffffffffffffffff168152602001908152602001600020549050919050565b61144461214b565b61144e6000612835565b565b600a5481565b61146082826128fb565b5050565b600b60009054906101000a900460ff1681565b61147f61214b565b600061148a306113f4565b9050818110156114cf576040517f08c379a00000000000000000000000000000000000000000000000000000000081526004016114c6906131ba565b60405180910390fd5b6114da30848461226b565b505050565b6000600560009054906101000a900473ffffffffffffffffffffffffffffffffffffffff16905090565b600c60003373ffffffffffffffffffffffffffffffffffffffff1673ffffffffffffffffffffffffffffffffffffffff16815260200190815260200160002060000160009054906101000a900460ff16611598576040517f08c379a000000000000000000000000000000000000000000000000000000000815260040161158f90612f1b565b60405180910390fd5b60006115f3600360ff16600c60003373ffffffffffffffffffffffffffffffffffffffff1673ffffffffffffffffffffffffffffffffffffffff168152602001908152602001600020600201546121c990919063ffffffff16565b905060008111611638576040517f08c379a000000000000000000000000000000000000000000000000000000000815260040161162f90613226565b60405180910390fd5b6000816008546116489190613246565b9050611661600360ff168361264990919063ffffffff16565b600c60003373ffffffffffffffffffffffffffffffffffffffff1673ffffffffffffffffffffffffffffffffffffffff1681526020019081526020016000206002015410156116af57600080fd5b6116c6600360ff168361264990919063ffffffff16565b600c60003373ffffffffffffffffffffffffffffffffffffffff1673ffffffffffffffffffffffffffffffffffffffff16815260200190815260200160002060020160008282546117179190613288565b9250508190555080471015611761576040517f08c379a000000000000000000000000000000000000000000000000000000000815260040161175890613308565b60405180910390fd5b80600c60003373ffffffffffffffffffffffffffffffffffffffff1673ffffffffffffffffffffffffffffffffffffffff16815260200190815260200160002060040160008282546117b39190612fa7565b925050819055503373ffffffffffffffffffffffffffffffffffffffff166108fc829081150290604051600060405180830381858888f19350505050158015611800573d6000803e3d6000fd5b507f2d5429efdeca7741a8cd94067b18d988bc4e5f1d5b8272c37b7bfc31e9bfa32c3382604051611832929190612fdb565b60405180910390a15050565b60606004805461184d90612d8c565b80601f016020809104026020016040519081016040528092919081815260200182805461187990612d8c565b80156118c65780601f1061189b576101008083540402835291602001916118c6565b820191906000526020600020905b8154815290600101906020018083116118a957829003601f168201915b5050505050905090565b600a81565b600381565b6000806118e5611f7a565b905060006118f38286611b3b565b905083811015611938576040517f08c379a000000000000000000000000000000000000000000000000000000000815260040161192f9061339a565b60405180910390fd5b6119458286868403611f82565b60019250505092915050565b61195961214b565b80600b60006101000a81548160ff021916908360ff16021790555050565b600080611982611f7a565b905061198f81858561226b565b600191505092915050565b6000600c60003373ffffffffffffffffffffffffffffffffffffffff1673ffffffffffffffffffffffffffffffffffffffff16815260200190815260200160002060000160009054906101000a900460ff16905090565b6000806000806000611a52600360ff16600c60008973ffffffffffffffffffffffffffffffffffffffff1673ffffffffffffffffffffffffffffffffffffffff168152602001908152602001600020600201546121c990919063ffffffff16565b905080600854611a629190613246565b600c60008873ffffffffffffffffffffffffffffffffffffffff1673ffffffffffffffffffffffffffffffffffffffff16815260200190815260200160002060040154600c60008973ffffffffffffffffffffffffffffffffffffffff1673ffffffffffffffffffffffffffffffffffffffff16815260200190815260200160002060050154600c60008a73ffffffffffffffffffffffffffffffffffffffff1673ffffffffffffffffffffffffffffffffffffffff168152602001908152602001600020600601549450945094509450509193509193565b6000600160008473ffffffffffffffffffffffffffffffffffffffff1673ffffffffffffffffffffffffffffffffffffffff16815260200190815260200160002060008373ffffffffffffffffffffffffffffffffffffffff1673ffffffffffffffffffffffffffffffffffffffff16815260200190815260200160002054905092915050565b611bca61214b565b600073ffffffffffffffffffffffffffffffffffffffff168173ffffffffffffffffffffffffffffffffffffffff1603611c39576040517f08c379a0000000000000000000000000000000000000000000000000000000008152600401611c309061342c565b60405180910390fd5b611c4281612835565b50565b600c60003373ffffffffffffffffffffffffffffffffffffffff1673ffffffffffffffffffffffffffffffffffffffff16815260200190815260200160002060000160009054906101000a900460ff16611cd4576040517f08c379a0000000000000000000000000000000000000000000000000000000008152600401611ccb90612f1b565b60405180910390fd5b6000611d2f600a60ff16600c60003373ffffffffffffffffffffffffffffffffffffffff1673ffffffffffffffffffffffffffffffffffffffff168152602001908152602001600020600301546121c990919063ffffffff16565b905060008111611d74576040517f08c379a0000000000000000000000000000000000000000000000000000000008152600401611d6b90613226565b60405180910390fd5b600081600854611d849190613246565b9050611d9d600a60ff168361264990919063ffffffff16565b600c60003373ffffffffffffffffffffffffffffffffffffffff1673ffffffffffffffffffffffffffffffffffffffff168152602001908152602001600020600301541015611deb57600080fd5b611e02600a60ff168361264990919063ffffffff16565b600c60003373ffffffffffffffffffffffffffffffffffffffff1673ffffffffffffffffffffffffffffffffffffffff1681526020019081526020016000206003016000828254611e539190613288565b9250508190555080471015611e9d576040517f08c379a0000000000000000000000000000000000000000000000000000000008152600401611e9490613308565b60405180910390fd5b80600c60003373ffffffffffffffffffffffffffffffffffffffff1673ffffffffffffffffffffffffffffffffffffffff1681526020019081526020016000206004016000828254611eef9190612fa7565b925050819055503373ffffffffffffffffffffffffffffffffffffffff166108fc829081150290604051600060405180830381858888f19350505050158015611f3c573d6000803e3d6000fd5b507f2d5429efdeca7741a8cd94067b18d988bc4e5f1d5b8272c37b7bfc31e9bfa32c3382604051611f6e929190612fdb565b60405180910390a15050565b600033905090565b600073ffffffffffffffffffffffffffffffffffffffff168373ffffffffffffffffffffffffffffffffffffffff1603611ff1576040517f08c379a0000000000000000000000000000000000000000000000000000000008152600401611fe8906134be565b60405180910390fd5b600073ffffffffffffffffffffffffffffffffffffffff168273ffffffffffffffffffffffffffffffffffffffff1603612060576040517f08c379a000000000000000000000000000000000000000000000000000000000815260040161205790613550565b60405180910390fd5b80600160008573ffffffffffffffffffffffffffffffffffffffff1673ffffffffffffffffffffffffffffffffffffffff16815260200190815260200160002060008473ffffffffffffffffffffffffffffffffffffffff1673ffffffffffffffffffffffffffffffffffffffff168152602001908152602001600020819055508173ffffffffffffffffffffffffffffffffffffffff168373ffffffffffffffffffffffffffffffffffffffff167f8c5be1e5ebec7d5bd14f71427d1e84f3dd0314c0f7b2291e5b200ac8c7c3b9258360405161213e919061293e565b60405180910390a3505050565b612153611f7a565b73ffffffffffffffffffffffffffffffffffffffff166121716114df565b73ffffffffffffffffffffffffffffffffffffffff16146121c7576040517f08c379a00000000000000000000000000000000000000000000000000000000081526004016121be906135bc565b60405180910390fd5b565b600081836121d7919061360b565b905092915050565b60006121eb8484611b3b565b90507fffffffffffffffffffffffffffffffffffffffffffffffffffffffffffffffff81146122655781811015612257576040517f08c379a000000000000000000000000000000000000000000000000000000000815260040161224e90613688565b60405180910390fd5b6122648484848403611f82565b5b50505050565b600073ffffffffffffffffffffffffffffffffffffffff168373ffffffffffffffffffffffffffffffffffffffff16036122da576040517f08c379a00000000000000000000000000000000000000000000000000000000081526004016122d19061371a565b60405180910390fd5b600073ffffffffffffffffffffffffffffffffffffffff168273ffffffffffffffffffffffffffffffffffffffff1603612349576040517f08c379a0000000000000000000000000000000000000000000000000000000008152600401612340906137ac565b60405180910390fd5b61235483838361291b565b60008060008573ffffffffffffffffffffffffffffffffffffffff1673ffffffffffffffffffffffffffffffffffffffff168152602001908152602001600020549050818110156123da576040517f08c379a00000000000000000000000000000000000000000000000000000000081526004016123d19061383e565b60405180910390fd5b8181036000808673ffffffffffffffffffffffffffffffffffffffff1673ffffffffffffffffffffffffffffffffffffffff16815260200190815260200160002081905550816000808573ffffffffffffffffffffffffffffffffffffffff1673ffffffffffffffffffffffffffffffffffffffff168152602001908152602001600020600082825461246d9190612fa7565b925050819055508273ffffffffffffffffffffffffffffffffffffffff168473ffffffffffffffffffffffffffffffffffffffff167fddf252ad1be2c89b69c2b068fc378daa952ba7f163c4a11628f55a4df523b3ef846040516124d1919061293e565b60405180910390a36124e4848484612920565b50505050565b600073ffffffffffffffffffffffffffffffffffffffff168273ffffffffffffffffffffffffffffffffffffffff1603612559576040517f08c379a0000000000000000000000000000000000000000000000000000000008152600401612550906138aa565b60405180910390fd5b6125656000838361291b565b80600260008282546125779190612fa7565b92505081905550806000808473ffffffffffffffffffffffffffffffffffffffff1673ffffffffffffffffffffffffffffffffffffffff16815260200190815260200160002060008282546125cc9190612fa7565b925050819055508173ffffffffffffffffffffffffffffffffffffffff16600073ffffffffffffffffffffffffffffffffffffffff167fddf252ad1be2c89b69c2b068fc378daa952ba7f163c4a11628f55a4df523b3ef83604051612631919061293e565b60405180910390a361264560008383612920565b5050565b600081836126579190613246565b905092915050565b600073ffffffffffffffffffffffffffffffffffffffff168273ffffffffffffffffffffffffffffffffffffffff16036126ce576040517f08c379a00000000000000000000000000000000000000000000000000000000081526004016126c59061393c565b60405180910390fd5b6126da8260008361291b565b60008060008473ffffffffffffffffffffffffffffffffffffffff1673ffffffffffffffffffffffffffffffffffffffff16815260200190815260200160002054905081811015612760576040517f08c379a0000000000000000000000000000000000000000000000000000000008152600401612757906139ce565b60405180910390fd5b8181036000808573ffffffffffffffffffffffffffffffffffffffff1673ffffffffffffffffffffffffffffffffffffffff1681526020019081526020016000208190555081600260008282546127b79190613288565b92505081905550600073ffffffffffffffffffffffffffffffffffffffff168373ffffffffffffffffffffffffffffffffffffffff167fddf252ad1be2c89b69c2b068fc378daa952ba7f163c4a11628f55a4df523b3ef8460405161281c919061293e565b60405180910390a361283083600084612920565b505050565b6000600560009054906101000a900473ffffffffffffffffffffffffffffffffffffffff16905081600560006101000a81548173ffffffffffffffffffffffffffffffffffffffff021916908373ffffffffffffffffffffffffffffffffffffffff1602179055508173ffffffffffffffffffffffffffffffffffffffff168173ffffffffffffffffffffffffffffffffffffffff167f8be0079c531659141344cd1fd0a4f28419497f9722a3daafe3b4186f6b6457e060405160405180910390a35050565b61290d82612907611f7a565b836121df565b612917828261265f565b5050565b505050565b505050565b6000819050919050565b61293881612925565b82525050565b6000602082019050612953600083018461292f565b92915050565b600081519050919050565b600082825260208201905092915050565b60005b83811015612993578082015181840152602081019050612978565b60008484015250505050565b6000601f19601f8301169050919050565b60006129bb82612959565b6129c58185612964565b93506129d5818560208601612975565b6129de8161299f565b840191505092915050565b60006020820190508181036000830152612a0381846129b0565b905092915050565b600080fd5b600073ffffffffffffffffffffffffffffffffffffffff82169050919050565b6000612a3b82612a10565b9050919050565b612a4b81612a30565b8114612a5657600080fd5b50565b600081359050612a6881612a42565b92915050565b612a7781612925565b8114612a8257600080fd5b50565b600081359050612a9481612a6e565b92915050565b60008060408385031215612ab157612ab0612a0b565b5b6000612abf85828601612a59565b9250506020612ad085828601612a85565b9150509250929050565b60008115159050919050565b612aef81612ada565b82525050565b6000602082019050612b0a6000830184612ae6565b92915050565b600080600060608486031215612b2957612b28612a0b565b5b6000612b3786828701612a59565b9350506020612b4886828701612a59565b9250506040612b5986828701612a85565b9150509250925092565b600060ff82169050919050565b612b7981612b63565b82525050565b6000602082019050612b946000830184612b70565b92915050565b600060208284031215612bb057612baf612a0b565b5b6000612bbe84828501612a85565b91505092915050565b600060208284031215612bdd57612bdc612a0b565b5b6000612beb84828501612a59565b91505092915050565b600060c082019050612c096000830189612ae6565b612c16602083018861292f565b612c23604083018761292f565b612c30606083018661292f565b612c3d608083018561292f565b612c4a60a083018461292f565b979650505050505050565b612c5e81612a30565b82525050565b6000602082019050612c796000830184612c55565b92915050565b612c8881612b63565b8114612c9357600080fd5b50565b600081359050612ca581612c7f565b92915050565b600060208284031215612cc157612cc0612a0b565b5b6000612ccf84828501612c96565b91505092915050565b6000608082019050612ced600083018761292f565b612cfa602083018661292f565b612d07604083018561292f565b612d14606083018461292f565b95945050505050565b60008060408385031215612d3457612d33612a0b565b5b6000612d4285828601612a59565b9250506020612d5385828601612a59565b9150509250929050565b7f4e487b7100000000000000000000000000000000000000000000000000000000600052602260045260246000fd5b60006002820490506001821680612da457607f821691505b602082108103612db757612db6612d5d565b5b50919050565b7f4e4f20455448455220544f205749544844524157000000000000000000000000600082015250565b6000612df3601483612964565b9150612dfe82612dbd565b602082019050919050565b60006020820190508181036000830152612e2281612de6565b9050919050565b7f4e487b7100000000000000000000000000000000000000000000000000000000600052603260045260246000fd5b7f4e487b7100000000000000000000000000000000000000000000000000000000600052601160045260246000fd5b6000612e9282612925565b91507fffffffffffffffffffffffffffffffffffffffffffffffffffffffffffffffff8203612ec457612ec3612e58565b5b600182019050919050565b7f4e6f20636c61696d207175616c696669636174696f6e73210000000000000000600082015250565b6000612f05601883612964565b9150612f1082612ecf565b602082019050919050565b60006020820190508181036000830152612f3481612ef8565b9050919050565b7f4e6f20656e6f75676820746f6b656e20746f20636c61696d0000000000000000600082015250565b6000612f71601883612964565b9150612f7c82612f3b565b602082019050919050565b60006020820190508181036000830152612fa081612f64565b9050919050565b6000612fb282612925565b9150612fbd83612925565b9250828201905080821115612fd557612fd4612e58565b5b92915050565b6000604082019050612ff06000830185612c55565b612ffd602083018461292f565b9392505050565b7f75736572732063616e277420696e76697465207468656d73656c766573210000600082015250565b600061303a601e83612964565b915061304582613004565b602082019050919050565b600060208201905081810360008301526130698161302d565b9050919050565b7f76616c75652073686f756c6420626520302e3120457468657200000000000000600082015250565b60006130a6601983612964565b91506130b182613070565b602082019050919050565b600060208201905081810360008301526130d581613099565b9050919050565b7f7468657265206973206e6f20656e6f75676820746f6b656e20746f207375627360008201527f6372696265210000000000000000000000000000000000000000000000000000602082015250565b6000613138602683612964565b9150613143826130dc565b604082019050919050565b600060208201905081810360008301526131678161312b565b9050919050565b7f746f6b656e2062616c616e6365206e6f7420656e6f7567682100000000000000600082015250565b60006131a4601983612964565b91506131af8261316e565b602082019050919050565b600060208201905081810360008301526131d381613197565b9050919050565b7f497420646f65736e2774206d6565742074686520636f6e646974696f6e730000600082015250565b6000613210601e83612964565b915061321b826131da565b602082019050919050565b6000602082019050818103600083015261323f81613203565b9050919050565b600061325182612925565b915061325c83612925565b925082820261326a81612925565b9150828204841483151761328157613280612e58565b5b5092915050565b600061329382612925565b915061329e83612925565b92508282039050818111156132b6576132b5612e58565b5b92915050565b7f4e6f20656e6f756768207265776172647320746f20636c61696d210000000000600082015250565b60006132f2601b83612964565b91506132fd826132bc565b602082019050919050565b60006020820190508181036000830152613321816132e5565b9050919050565b7f45524332303a2064656372656173656420616c6c6f77616e63652062656c6f7760008201527f207a65726f000000000000000000000000000000000000000000000000000000602082015250565b6000613384602583612964565b915061338f82613328565b604082019050919050565b600060208201905081810360008301526133b381613377565b9050919050565b7f4f776e61626c653a206e6577206f776e657220697320746865207a65726f206160008201527f6464726573730000000000000000000000000000000000000000000000000000602082015250565b6000613416602683612964565b9150613421826133ba565b604082019050919050565b6000602082019050818103600083015261344581613409565b9050919050565b7f45524332303a20617070726f76652066726f6d20746865207a65726f2061646460008201527f7265737300000000000000000000000000000000000000000000000000000000602082015250565b60006134a8602483612964565b91506134b38261344c565b604082019050919050565b600060208201905081810360008301526134d78161349b565b9050919050565b7f45524332303a20617070726f766520746f20746865207a65726f20616464726560008201527f7373000000000000000000000000000000000000000000000000000000000000602082015250565b600061353a602283612964565b9150613545826134de565b604082019050919050565b600060208201905081810360008301526135698161352d565b9050919050565b7f4f776e61626c653a2063616c6c6572206973206e6f7420746865206f776e6572600082015250565b60006135a6602083612964565b91506135b182613570565b602082019050919050565b600060208201905081810360008301526135d581613599565b9050919050565b7f4e487b7100000000000000000000000000000000000000000000000000000000600052601260045260246000fd5b600061361682612925565b915061362183612925565b925082613631576136306135dc565b5b828204905092915050565b7f45524332303a20696e73756666696369656e7420616c6c6f77616e6365000000600082015250565b6000613672601d83612964565b915061367d8261363c565b602082019050919050565b600060208201905081810360008301526136a181613665565b9050919050565b7f45524332303a207472616e736665722066726f6d20746865207a65726f20616460008201527f6472657373000000000000000000000000000000000000000000000000000000602082015250565b6000613704602583612964565b915061370f826136a8565b604082019050919050565b60006020820190508181036000830152613733816136f7565b9050919050565b7f45524332303a207472616e7366657220746f20746865207a65726f206164647260008201527f6573730000000000000000000000000000000000000000000000000000000000602082015250565b6000613796602383612964565b91506137a18261373a565b604082019050919050565b600060208201905081810360008301526137c581613789565b9050919050565b7f45524332303a207472616e7366657220616d6f756e742065786365656473206260008201527f616c616e63650000000000000000000000000000000000000000000000000000602082015250565b6000613828602683612964565b9150613833826137cc565b604082019050919050565b600060208201905081810360008301526138578161381b565b9050919050565b7f45524332303a206d696e7420746f20746865207a65726f206164647265737300600082015250565b6000613894601f83612964565b915061389f8261385e565b602082019050919050565b600060208201905081810360008301526138c381613887565b9050919050565b7f45524332303a206275726e2066726f6d20746865207a65726f2061646472657360008201527f7300000000000000000000000000000000000000000000000000000000000000602082015250565b6000613926602183612964565b9150613931826138ca565b604082019050919050565b6000602082019050818103600083015261395581613919565b9050919050565b7f45524332303a206275726e20616d6f756e7420657863656564732062616c616e60008201527f6365000000000000000000000000000000000000000000000000000000000000602082015250565b60006139b8602283612964565b91506139c38261395c565b604082019050919050565b600060208201905081810360008301526139e7816139ab565b905091905056fea2646970667358221220a929eeca37ee482c1189f62c3df39f04780d79e109556feb84688f7626d7b4dc64736f6c63430008110033",
  "linkReferences": {},
  "deployedLinkReferences": {}
}